:100000000C9434000C9449000C9449000C94490061
:100010000C9449000C9449000C9449000C9449003C
:100020000C9449000C9449000C9449000C9449002C
:100030000C9449000C9449000C9449000C9449001C
:100040000C9449000C9449000C9449000C9449000C
:100050000C9449000C9449000C9449000C944900FC
:100060000C9449000C94490011241FBECFEFD8E036
:10007000DEBFCDBF11E0A0E0B1E0E0E4F1E002C0FE
:1000800005900D92A830B107D9F70E944B000C944F
:100090009E000C940000CF93DF93CDB7DEB7289776
:1000A0000FB6F894DEBF0FBECDBF8FEF8AB988E0E0
:1000B000E0E0F1E0DE01119601900D928A95E1F702
:1000C00020E030E037C0A9014F5F5F4FCA01877061
:1000D0009078992324F40197886F9F6F0196FC0113
:1000E000C901029687709078992324F40197886F4C
:1000F0009F6F0196A1E0B0E0AC0FBD1FA20FB31F30
:100100003C9161E070E06C0F7D1FE60FF71F2081CE
:10011000FB01E80FF91F9081832F822B892B8BB96C
:100120007FEF83ED90E3715080409040E1F700C095
:1001300000009A012830310534F2C2CFF894FFCF85
:080140008040201008040201B8
:00000001FF
