:100000000C9434000C9451000C9451000C94510049
:100010000C9451000C9451000C9451000C9451001C
:100020000C9451000C9451000C9451000C9453000A
:100030000C9451000C9451000C9451000C945100FC
:100040000C9451000C9451000C9451000C945100EC
:100050000C9451000C9451000C9451000C945100DC
:100060000C9451000C94510011241FBECFEFD8E026
:10007000DEBFCDBF11E0A0E0B1E0E4E5F1E002C0F9
:1000800005900D92AA30B107D9F721E0AAE0B1E0BE
:1000900001C01D92AD30B207E1F70E946E000C94D2
:1000A000A8000C9400001F920F920FB60F9211241B
:1000B0008F939F9380910A0190910B0101969093E9
:1000C0000B0180930A0110928500109284009F9189
:1000D0008F910F900FBE0F901F9018958FEF8AB9D8
:1000E0001BB885E08093810080E890E090938900C0
:1000F00080938800EFE6F0E08081826080837894CE
:1001000080910A0190910B0180349105C9F71092FA
:100110000B0110920A0120910C018DEC289F812D7A
:100120001124869586958695880F982F990F990F9B
:10013000890F281B20930C01E0910C0181E08E0FA8
:1001400080930C01F0E0E050FF4F80818BB9D8CF55
:04015000F894FFCF51
:0A015400E070381C0E070E1C387016
:00000001FF
