S01300004D7941746D656C5F4857352E7372656325
S11300000C9434000C9451000C9451000C9447014E
S11300100C9451000C9451000C9451000C94510018
S11300200C9451000C9451000C9451000C94510008
S11300300C9451000C9451000C946D000C945100DC
S11300400C9451000C9451000C9451000C945100E8
S11300500C9451000C9451000C9451000C945100D8
S11300600C9451000C94510011241FBECFEFD8E022
S1130070DEBFCDBF11E0A0E0B1E0ECEDF7E002C0DF
S113008005900D92A232B107D9F721E0A2E2B1E0C6
S113009001C01D92A832B207E1F70E948A010C94B4
S11300A0EC030C940000E0E8F0E08081826080833F
S11300B0A1E8B0E08C9188618C938C9182608C93E0
S11300C080E49CE990938700809386008081806817
S11300D0808384B1826084B908951F920F920FB611
S11300E00F9211242F933F934F935F936F937F93BA
S11300F08F939F93AF93BF93EF93FF9380912601C8
S11301009091270101969093270180932601809175
S1130110220190912301892BD9F08091260190919D
S1130120270180389240A4F01092230110922201FA
S113013010922701109226010E94150280E091E09E
S11301400E943D0284E893E09093890080938800A4
S11301508091220190912301892B59F180912401EE
S1130160909125011816190624F580912401909187
S11301702501019690932501809324018091240107
S113018090912501803C9105A4F0109223011092D6
S1130190220110922501109224010E94150280E090
S11301A091E00E943D0284E893E09093890080935B
S11301B0880016BCFF91EF91BF91AF919F918F91F1
S11301C07F916F915F914F913F912F910F900FBE4F
S11301D00F901F90189585B5856085BD80E887BD13
S11301E0EEE6F0E0808182608083089588B18160CA
S11301F088B985E38A95F1F7000088B18E7F88B9C4
S113020016BC03C086B58B3F68F5319BFBCF16BC8B
S113021005C086B58B3F10F016BC02C03199F9CFEA
S113022066B570E0762F6627770F770F072E000CE0
S1130230880B990B0E94F30220E034E244E759E46E
S11302400E947F0320E034E244E75BE40E94500212
S113025020E030E048E652E40E9450020E94C202CC
S1130260862F08958FEF089584B1877F84B985B16F
S1130270886085B90895E8E6F0E080818160808334
S1130280EBE6F0E0808188608083789408951F9283
S11302900F920FB60F9211242F933F934F935F93B6
S11302A06F937F938F939F93AF93BF93EF93FF933A
S11302B08091220190912301892B29F0109225012C
S11302C01092240116C081E090E090932301809362
S11302D0220110922701109226010E9415028BE040
S11302E091E00E943D028CE592E190938900809315
S11302F08800FF91EF91BF91AF919F918F917F9172
S11303006F915F914F913F912F910F900FBE0F907E
S11303101F9018950E94530087B1816087B987B1F7
S11303208D7F87B90E94EB0078940E9434010E946B
S11303303B01D1E0DD2389F00E941F0285E191E0B9
S11303400E943D022FEF87EA91E6215080409040C1
S1130350E1F700C00000D0E02DC00E94F600C82FD5
S11303600E941502C650C930A8F481E090E0909331
S113037023018093220110922701109226018BE021
S113038091E00E943D028CE592E190938900809374
S1130390880010C08091220190912301892B51F48F
S11303A080E091E00E943D0284E893E0909389000C
S11303B0809388002FEF83ED90E32150804090409C
S11303C0E1F700C00000B6CF85B1826085B985E051
S11303D08A95F1F7000085B18D7F85B90895CF9393
S11303E0C82F85B1816085B98C2F807F8BB90E941D
S11303F0E40120E1C29FC00111248BB90E94E401F1
S1130400CF910895CF93C82F85B18E7F85B98C2F56
S1130410807F8BB90E94E40120E1C29FC0011124B6
S11304208BB90E94E401CF91089581E00E940202F9
S11304308FE39FE10197F1F700C0000008952FEFCB
S113044080E792E0215080409040E1F700C0000036
S11304508AB1806F8AB984B1836084B982E00E94D2
S1130460020288E20E9402028CE00E9402020E94C0
S1130470150286E00E94020208950F931F93CF9302
S11304808C01C0E003C00E94EF01CF5FF801EC0FC4
S1130490F11D80818111F7CFCF911F910F910895A4
S11304A00E9464020C9445030E943E0358F00E948B
S11304B0370340F029F45F3F29F00C942E035111C7
S11304C00C9479030C9434030E94560368F3992323
S11304D0B1F3552391F3951B550BBB27AA2762173C
S11304E07307840738F09F5F5F4F220F331F441F49
S11304F0AA1FA9F335D00E2E3AF0E0E832D091507D
S11305005040E695001CCAF72BD0FE2F29D0660F69
S1130510771F881FBB1F261737074807AB07B0E8AC
S113052009F0BB0B802DBF01FF2793585F4F3AF0B2
S11305309E3F510578F00C942E030C9479035F3F91
S1130540E4F3983ED4F3869577956795B795F79538
S11305509F5FC9F7880F911D9695879597F9089520
S1130560E1E0660F771F881FBB1F621773078407BC
S1130570BA0720F0621B730B840BBA0BEE1F88F7CB
S1130580E09508950E945E0388F09F5798F0B92F74
S11305909927B751B0F0E1F0660F771F881F991FB4
S11305A01AF0BA95C9F714C0B13091F00E947803DB
S11305B0B1E008950C947803672F782F8827B85FEB
S11305C039F0B93FCCF3869577956795B395D9F70C
S11305D03EF490958095709561957F4F8F4F9F4F16
S11305E00895E89409C097FB3EF490958095709522
S11305F061957F4F8F4F9F4F9923A9F0F92F96E96B
S1130600BB279395F695879577956795B795F111DF
S1130610F8CFFAF4BB0F11F460FF1BC06F5F7F4F7C
S11306208F4F9F4F16C0882311F096E911C077238E
S113063021F09EE8872F762F05C0662371F096E897
S1130640862F70E060E02AF09A95660F771F881F66
S1130650DAF7880F9695879597F9089597F99F6724
S113066080E870E060E008959FEF80EC0895002436
S11306700A941616170618060906089500240A9403
S113068012161306140605060895092E0394000C89
S113069011F4882352F0BB0F40F4BF2B11F460FF18
S11306A004C06F5F7F4F8F4F9F4F089557FD905841
S11306B0440F551F59F05F3F71F04795880F97FB22
S11306C0991F61F09F3F79F08795089512161306DC
S11306D01406551FF2CF4695F1DF08C0161617060B
S11306E01806991FF1CF8695710561050894089540
S11306F0E894BB2766277727CB0197F908950E94D2
S113070092030C9445030E94370338F00E943E0381
S113071020F0952311F00C942E030C94340311242F
S11307200C9479030E94560370F3959FC1F3950FBF
S113073050E0551F629FF001729FBB27F00DB11D61
S1130740639FAA27F00DB11DAA1F649F6627B00DF1
S1130750A11D661F829F2227B00DA11D621F739FDA
S1130760B00DA11D621F839FA00D611D221F749FE8
S11307703327A00D611D231F849F600D211D822F2F
S1130780762F6A2F11249F5750409AF0F1F0882356
S11307904AF0EE0FFF1FBB1F661F771F881F915083
S11307A05040A9F79E3F510580F00C942E030C9401
S11307B079035F3FE4F3983ED4F386957795679584
S11307C0B795F795E7959F5FC1F7FE2B880F911DAD
S10F07D09695879597F90895F894FFCF4B
S11307DC77616974696E672E2E2E0057656C636F92
S11307EC6D652121005374617274696E672E2E2E0F
S10507FC0000F7
S9030000FC
