:100000000C9434000C9451000C9451000C94510049
:100010000C9451000C9453000C9451000C9451001A
:100020000C9451000C9451000C9451000C9451000C
:100030000C9451000C9451000C9451000C945100FC
:100040000C9451000C9451000C9451000C945100EC
:100050000C9451000C9451000C9451000C945100DC
:100060000C9451000C94510011241FBECFEFD8E026
:10007000DEBFCDBF11E0A0E0B1E0EAEFF2E002C0E8
:1000800005900D92AA31B107D9F721E0AAE1B1E0BC
:1000900001C01D92AC31B207E1F70E94B2000C948E
:1000A0007B010C9400001F920F920FB60F92112447
:1000B0002F933F934F935F936F937F938F939F9370
:1000C000AF93BF93EF93FF934B9B06C04C9B04C031
:1000D0004E9B02C04F9925C080911A0190911B013F
:1000E000019690931B0180931A0180911A019091BF
:1000F0001B0163E070E00E943101892B91F480E0E4
:1001000091E00E94D80060911A0170911B01072EA6
:10011000000C880B990B0E94EE0088E191E00E9490
:10012000D800FF91EF91BF91AF919F918F917F91F7
:100130006F915F914F913F912F910F900FBE0F9054
:100140001F9018951AB88FEF8BB90895E8E6F0E084
:10015000808184608083EDE6F0E08081886D80831B
:10016000789408950E94B9000E94A2000E94A600FF
:10017000FFCFE0ECF0E08081826080831092C500C8
:100180008FEC8093C400E2ECF0E080818660808395
:10019000E1ECF0E0808180618083808188608083F1
:1001A00008959091C00095FFFCCF8093C6000895FC
:1001B0000F931F93CF93DF938C01C0E0D0E003C077
:1001C0000E94D1002196F801EC0FFD1F8081811162
:1001D000F7CFDF91CF911F910F9108950F931F9348
:1001E000CF93DF93CDB7DEB72A970FB6F894DEBF73
:1001F0000FBECDBF00E010E014C02AE030E040E0C8
:1002000050E00E944501E1E0F0E0EC0FFD1FE00F3F
:10021000F11F605D6083622F732F842F952F0F5F16
:100220001F4F611571058105910539F701501109BD
:100230000BC0E1E0F0E0EC0FFD1FE00FF11F80814B
:100240000E94D1000150110911239CF72A960FB684
:10025000F894DEBF0FBECDBFDF91CF911F910F91FC
:10026000089597FB072E16F4009407D077FD09D068
:100270000E94670107FC05D03EF4909581959F4F41
:100280000895709561957F4F0895A1E21A2EAA1BDB
:10029000BB1BFD010DC0AA1FBB1FEE1FFF1FA21736
:1002A000B307E407F50720F0A21BB30BE40BF50B33
:1002B000661F771F881F991F1A9469F760957095BC
:1002C000809590959B01AC01BD01CF010895AA1BBB
:1002D000BB1B51E107C0AA1FBB1FA617B70710F031
:1002E000A61BB70B881F991F5A95A9F78095909563
:0A02F000BC01CD010895F894FFCF82
:1002FA0043757272656E7420436F756E74657220F1
:0A030A0056616C75653A20000A0088
:00000001FF
