S01000004D794E657742544E2E7372656340
S11300000C9434000C943E000C943E000C943E007E
S11300100C943E000C943E000C943E000C943E0064
S11300200C943E000C943E000C943E000C943E0054
S11300300C943E000C943E000C943E000C943E0044
S11300400C943E000C943E000C943E000C943E0034
S11300500C943E000C943E000C943E000C943E0024
S11300600C943E000C943E0011241FBECFEFD8E048
S1130070DEBFCDBF0E944C000C94CC000C94000059
S113008014B8089589B18FE39CE90197F1F700C092
S1130090000089B181E00895CF93DF9300D000D0B0
S11300A000D0CDB7DEB70E9497000E9440008AE0DE
S11300B08D831E820E94420000E010E027C043B1FD
S11300C082E090E09C01002E02C0220F331F0A94AC
S11300D0E2F7842F90E082239323892B69F08AE24C
S11300E090E00E94B600E1E0F0E0EC0FFD1FE00FAD
S11300F0F11F8FE6808308C0E1E0F0E0EC0FFD1F04
S1130100E00FF11F88E780830F5F1F4F0430110554
S1130110B4F2CE0101960E94B6002FEF87EA91E671
S1130120215080409040E1F700C00000C3CFE0ECD4
S1130130F0E08081826080831092C5008FEC809310
S1130140C400E2ECF0E0808186608083E1ECF0E0C2
S1130150808180618083808188608083089590910C
S1130160C00095FFFCCF8093C60008950F931F93A2
S1130170CF93DF938C01C0E0D0E003C00E94AF00B6
S11301802196F801EC0FFD1F80818111F7CFDF91DB
S10F0190CF911F910F910895F894FFCFB8
S9030000FC
