S01000004D79416E616C6F672E73726563FC
S11300000C9434000C9449000C9449000C9449005D
S11300100C9449000C9449000C9449000C94490038
S11300200C9449000C9449000C9449000C94490028
S11300300C9449000C9449000C9449000C94490018
S11300400C9449000C9449000C9449000C94490008
S11300500C9449000C9449000C9449000C944900F8
S11300600C9449000C94490011241FBECFEFD8E032
S1130070DEBFCDBF11E0A0E0B1E0E2E1F1E002C0FB
S113008005900D92A030B107D9F70E9471000C942D
S113009087000C940000ACE7B0E09C9190649C93C2
S11300A0EAE7F0E090819760908390819068908374
S11300B09081906290839C912C91907E892B822BCD
S11300C08C93808180648083089580917A0084FF7A
S11300D0FCCF809178009091790008958FEF8AB9D0
S11300E0089580E00E944B000E946E000E9465000B
S11300F0880F892F881F990B009721F0079721F00B
S113010080E003C081E001C080E88BB9EFCFF894B0
S1050110FFCF1B
S9030000FC
